{
  "contractName": "ARMSJARB_C_TOKEN",
  "abi": [
    {
      "constant": true,
      "inputs": [],
      "name": "totalSupply",
      "outputs": [
        {
          "name": "",
          "type": "uint256"
        }
      ],
      "payable": false,
      "stateMutability": "view",
      "type": "function"
    },
    {
      "inputs": [],
      "payable": false,
      "stateMutability": "nonpayable",
      "type": "constructor"
    }
  ],
  "bytecode": "0x608060405234801561001057600080fd5b50620f4240600081905550609e806100296000396000f300608060405260043610603f576000357c0100000000000000000000000000000000000000000000000000000000900463ffffffff16806318160ddd146044575b600080fd5b348015604f57600080fd5b506056606c565b6040518082815260200191505060405180910390f35b600054815600a165627a7a7230582099b7a6d87938e604823d392a7008f701d1d285cb8269beff750270d2bfea816e0029",
  "source": "pragma solidity ^0.4.22;\r\n\r\ncontract ARMSJARB_C_TOKEN{\r\n    //Constructor\r\n    //Set Tokens\r\n    //Read total number of Tokens\r\n    uint256 public totalSupply;\r\n\r\n    function ARMSJARB_C_TOKEN() public{\r\n        totalSupply = 1000000;\r\n\r\n    }\r\n}\r\n\r\n\r\n\r\n\r\n\r\n\r\n\r\n\r\n\r\n\r\n\r\n\r\n\r\n\r\n\r\n\r\n\r\n\r\n\r\n\r\n\r\n\r\n\r\n\r\n\r\n\r\n\r\n\r\n\r\n\r\n\r\n\r\n\r\n\r\n////\r\n",
  "sourcePath": "C:/Users/Owner/ARMSJARB_C/contracts/ARMSJARB_C_TOKEN.sol",
  "compiler": {
    "name": "solc",
    "version": "0.4.22+commit.4cb486ee.Emscripten.clang"
  },
  "schemaVersion": "3.4.1",
  "updatedAt": "2021-05-23T23:35:25.971Z",
  "networkType": "ethereum",
  "devdoc": {
    "methods": {}
  },
  "userdoc": {
    "methods": {}
  }
}